{
  "contractName": "Splitter",
  "abi": [
    {
      "inputs": [
        {
          "internalType": "bool",
          "name": "_running",
          "type": "bool"
        },
        {
          "internalType": "uint256",
          "name": "_maxGas",
          "type": "uint256"
        }
      ],
      "stateMutability": "nonpayable",
      "type": "constructor"
    },
    {
      "anonymous": false,
      "inputs": [
        {
          "indexed": true,
          "internalType": "address",
          "name": "oldOwner",
          "type": "address"
        },
        {
          "indexed": true,
          "internalType": "address",
          "name": "newOwner",
          "type": "address"
        }
      ],
      "name": "LogNewOwner",
      "type": "event"
    },
    {
      "anonymous": false,
      "inputs": [
        {
          "indexed": true,
          "internalType": "address",
          "name": "owner",
          "type": "address"
        },
        {
          "indexed": false,
          "internalType": "uint256",
          "name": "maxGas",
          "type": "uint256"
        }
      ],
      "name": "MaxGasChangedLog",
      "type": "event"
    },
    {
      "anonymous": false,
      "inputs": [
        {
          "indexed": true,
          "internalType": "address",
          "name": "owner",
          "type": "address"
        },
        {
          "indexed": false,
          "internalType": "bool",
          "name": "switchSetting",
          "type": "bool"
        }
      ],
      "name": "RunSwitchLog",
      "type": "event"
    },
    {
      "anonymous": false,
      "inputs": [
        {
          "indexed": true,
          "internalType": "address",
          "name": "sender",
          "type": "address"
        },
        {
          "indexed": false,
          "internalType": "uint256",
          "name": "amount",
          "type": "uint256"
        },
        {
          "indexed": true,
          "internalType": "address",
          "name": "first",
          "type": "address"
        },
        {
          "indexed": true,
          "internalType": "address",
          "name": "second",
          "type": "address"
        }
      ],
      "name": "SplitLog",
      "type": "event"
    },
    {
      "anonymous": false,
      "inputs": [
        {
          "indexed": true,
          "internalType": "address",
          "name": "who",
          "type": "address"
        },
        {
          "indexed": false,
          "internalType": "uint256",
          "name": "amount",
          "type": "uint256"
        }
      ],
      "name": "WithdrawRefundlog",
      "type": "event"
    },
    {
      "stateMutability": "nonpayable",
      "type": "fallback"
    },
    {
      "inputs": [
        {
          "internalType": "address",
          "name": "",
          "type": "address"
        }
      ],
      "name": "balances",
      "outputs": [
        {
          "internalType": "uint256",
          "name": "",
          "type": "uint256"
        }
      ],
      "stateMutability": "view",
      "type": "function",
      "constant": true
    },
    {
      "inputs": [
        {
          "internalType": "address",
          "name": "_newOwner",
          "type": "address"
        }
      ],
      "name": "changeOwner",
      "outputs": [
        {
          "internalType": "bool",
          "name": "",
          "type": "bool"
        }
      ],
      "stateMutability": "nonpayable",
      "type": "function"
    },
    {
      "inputs": [],
      "name": "getOwner",
      "outputs": [
        {
          "internalType": "address",
          "name": "",
          "type": "address"
        }
      ],
      "stateMutability": "view",
      "type": "function",
      "constant": true
    },
    {
      "inputs": [],
      "name": "isRunning",
      "outputs": [
        {
          "internalType": "bool",
          "name": "",
          "type": "bool"
        }
      ],
      "stateMutability": "view",
      "type": "function",
      "constant": true
    },
    {
      "inputs": [],
      "name": "maxGas",
      "outputs": [
        {
          "internalType": "uint256",
          "name": "",
          "type": "uint256"
        }
      ],
      "stateMutability": "view",
      "type": "function",
      "constant": true
    },
    {
      "inputs": [],
      "name": "runSwitch",
      "outputs": [
        {
          "internalType": "bool",
          "name": "",
          "type": "bool"
        }
      ],
      "stateMutability": "nonpayable",
      "type": "function"
    },
    {
      "inputs": [
        {
          "internalType": "address",
          "name": "_first",
          "type": "address"
        },
        {
          "internalType": "address",
          "name": "_second",
          "type": "address"
        }
      ],
      "name": "split",
      "outputs": [
        {
          "internalType": "bool",
          "name": "",
          "type": "bool"
        }
      ],
      "stateMutability": "payable",
      "type": "function",
      "payable": true
    },
    {
      "inputs": [],
      "name": "withdrawRefund",
      "outputs": [
        {
          "internalType": "bool",
          "name": "success",
          "type": "bool"
        }
      ],
      "stateMutability": "nonpayable",
      "type": "function"
    },
    {
      "inputs": [
        {
          "internalType": "uint256",
          "name": "_maxGas",
          "type": "uint256"
        }
      ],
      "name": "changeMaxGas",
      "outputs": [
        {
          "internalType": "bool",
          "name": "",
          "type": "bool"
        }
      ],
      "stateMutability": "nonpayable",
      "type": "function"
    }
  ],
  "bytecode": "0x608060405234801561001057600080fd5b506040516113d33803806113d38339818101604052604081101561003357600080fd5b81019080805190602001909291908051906020019092919050505081336000806101000a81548173ffffffffffffffffffffffffffffffffffffffff021916908373ffffffffffffffffffffffffffffffffffffffff16021790555080600060146101000a81548160ff02191690831515021790555050806001819055505050611311806100c26000396000f3fe60806040526004361061008a5760003560e01c806327e235e31161005957806327e235e3146101a6578063501d815c1461020b578063893d20e814610236578063a6f9dae11461028d578063e2b4c875146102f65761008b565b80630cb981ec1461009d5780630f2c9329146100cc578063110f8874146101485780632014e5d1146101775761008b565b5b34801561009757600080fd5b50600080fd5b3480156100a957600080fd5b506100b2610349565b604051808215151515815260200191505060405180910390f35b61012e600480360360408110156100e257600080fd5b81019080803573ffffffffffffffffffffffffffffffffffffffff169060200190929190803573ffffffffffffffffffffffffffffffffffffffff169060200190929190505050610478565b604051808215151515815260200191505060405180910390f35b34801561015457600080fd5b5061015d6109c6565b604051808215151515815260200191505060405180910390f35b34801561018357600080fd5b5061018c610b73565b604051808215151515815260200191505060405180910390f35b3480156101b257600080fd5b506101f5600480360360208110156101c957600080fd5b81019080803573ffffffffffffffffffffffffffffffffffffffff169060200190929190505050610b89565b6040518082815260200191505060405180910390f35b34801561021757600080fd5b50610220610ba1565b6040518082815260200191505060405180910390f35b34801561024257600080fd5b5061024b610ba7565b604051808273ffffffffffffffffffffffffffffffffffffffff1673ffffffffffffffffffffffffffffffffffffffff16815260200191505060405180910390f35b34801561029957600080fd5b506102dc600480360360208110156102b057600080fd5b81019080803573ffffffffffffffffffffffffffffffffffffffff169060200190929190505050610bd0565b604051808215151515815260200191505060405180910390f35b34801561030257600080fd5b5061032f6004803603602081101561031957600080fd5b8101908080359060200190929190505050610d1f565b604051808215151515815260200191505060405180910390f35b60008060009054906101000a900473ffffffffffffffffffffffffffffffffffffffff1673ffffffffffffffffffffffffffffffffffffffff163373ffffffffffffffffffffffffffffffffffffffff16146103f0576040517f08c379a00000000000000000000000000000000000000000000000000000000081526004018080602001828103825260328152602001806111a16032913960400191505060405180910390fd5b60008060149054906101000a900460ff1615905080600060146101000a81548160ff0219169083151502179055503373ffffffffffffffffffffffffffffffffffffffff167f2318337067be6d6350868bb74b3d7cdc9d7e88784049f0b4d7047961a7a49dba82604051808215151515815260200191505060405180910390a2600191505090565b60008060149054906101000a900460ff166104de576040517f08c379a000000000000000000000000000000000000000000000000000000000815260040180806020018281038252602e815260200180611205602e913960400191505060405180910390fd5b600073ffffffffffffffffffffffffffffffffffffffff168373ffffffffffffffffffffffffffffffffffffffff16141580156105485750600073ffffffffffffffffffffffffffffffffffffffff168273ffffffffffffffffffffffffffffffffffffffff1614155b61059d576040517f08c379a000000000000000000000000000000000000000000000000000000000815260040180806020018281038252603a815260200180611142603a913960400191505060405180910390fd5b3373ffffffffffffffffffffffffffffffffffffffff168373ffffffffffffffffffffffffffffffffffffffff161415801561060557503373ffffffffffffffffffffffffffffffffffffffff168273ffffffffffffffffffffffffffffffffffffffff1614155b61065a576040517f08c379a00000000000000000000000000000000000000000000000000000000081526004018080602001828103825260328152602001806111d36032913960400191505060405180910390fd5b8173ffffffffffffffffffffffffffffffffffffffff168373ffffffffffffffffffffffffffffffffffffffff1614156106df576040517f08c379a000000000000000000000000000000000000000000000000000000000815260040180806020018281038252603c815260200180611233603c913960400191505060405180910390fd5b6000341415610739576040517f08c379a000000000000000000000000000000000000000000000000000000000815260040180806020018281038252602581526020018061117c6025913960400191505060405180910390fd5b600061074f600234610e9e90919063ffffffff16565b90506107b6610768600234610ee890919063ffffffff16565b600260008773ffffffffffffffffffffffffffffffffffffffff1673ffffffffffffffffffffffffffffffffffffffff16815260200190815260200160002054610f3290919063ffffffff16565b600260008673ffffffffffffffffffffffffffffffffffffffff1673ffffffffffffffffffffffffffffffffffffffff1681526020019081526020016000208190555061085e610810600234610ee890919063ffffffff16565b600260008673ffffffffffffffffffffffffffffffffffffffff1673ffffffffffffffffffffffffffffffffffffffff16815260200190815260200160002054610f3290919063ffffffff16565b600260008573ffffffffffffffffffffffffffffffffffffffff1673ffffffffffffffffffffffffffffffffffffffff168152602001908152602001600020819055506000811461093f576108fb81600260003373ffffffffffffffffffffffffffffffffffffffff1673ffffffffffffffffffffffffffffffffffffffff16815260200190815260200160002054610f3290919063ffffffff16565b600260003373ffffffffffffffffffffffffffffffffffffffff1673ffffffffffffffffffffffffffffffffffffffff168152602001908152602001600020819055505b8273ffffffffffffffffffffffffffffffffffffffff168473ffffffffffffffffffffffffffffffffffffffff163373ffffffffffffffffffffffffffffffffffffffff167f67670780f01b655c17985d1fe0765322a591a186162d01379c0fcf509e9b5d7f346040518082815260200191505060405180910390a4600191505092915050565b600080600260003373ffffffffffffffffffffffffffffffffffffffff1673ffffffffffffffffffffffffffffffffffffffff1681526020019081526020016000205490506000811415610a65576040517f08c379a00000000000000000000000000000000000000000000000000000000081526004018080602001828103825260398152602001806112a36039913960400191505060405180910390fd5b3373ffffffffffffffffffffffffffffffffffffffff167fb2af39b969bda44c4b7ffbe170e6cfd7caf8aa980392780b47f64fb64e9b4442826040518082815260200191505060405180910390a26000600260003373ffffffffffffffffffffffffffffffffffffffff1673ffffffffffffffffffffffffffffffffffffffff168152602001908152602001600020819055503373ffffffffffffffffffffffffffffffffffffffff1660015482604051806000019050600060405180830381858888f193505050503d8060008114610b5a576040519150601f19603f3d011682016040523d82523d6000602084013e610b5f565b606091505b50508092505081610b6f57600080fd5b5090565b60008060149054906101000a900460ff16905090565b60026020528060005260406000206000915090505481565b60015481565b60008060009054906101000a900473ffffffffffffffffffffffffffffffffffffffff16905090565b6000806000809054906101000a900473ffffffffffffffffffffffffffffffffffffffff1690508073ffffffffffffffffffffffffffffffffffffffff163373ffffffffffffffffffffffffffffffffffffffff1614610c7b576040517f08c379a000000000000000000000000000000000000000000000000000000000815260040180806020018281038252603481526020018061126f6034913960400191505060405180910390fd5b826000806101000a81548173ffffffffffffffffffffffffffffffffffffffff021916908373ffffffffffffffffffffffffffffffffffffffff1602179055508273ffffffffffffffffffffffffffffffffffffffff168173ffffffffffffffffffffffffffffffffffffffff167f1f8d7d25344642d919d55999e4664aa452a5f424bc0936ceb9c2b300db7dcbd960405160405180910390a36001915050919050565b60008060009054906101000a900473ffffffffffffffffffffffffffffffffffffffff1673ffffffffffffffffffffffffffffffffffffffff163373ffffffffffffffffffffffffffffffffffffffff1614610dc6576040517f08c379a00000000000000000000000000000000000000000000000000000000081526004018080602001828103825260328152602001806111a16032913960400191505060405180910390fd5b6000600154905082811415610e43576040517f08c379a00000000000000000000000000000000000000000000000000000000081526004018080602001828103825260178152602001807f43616e27742068617665207468652073616d652067617300000000000000000081525060200191505060405180910390fd5b826001819055503373ffffffffffffffffffffffffffffffffffffffff167f404195baab15a14e292361792b95584754bb79e658acf2f9c80f339e59588214846040518082815260200191505060405180910390a250919050565b6000610ee083836040518060400160405280601881526020017f536166654d6174683a206d6f64756c6f206279207a65726f0000000000000000815250610fba565b905092915050565b6000610f2a83836040518060400160405280601a81526020017f536166654d6174683a206469766973696f6e206279207a65726f00000000000081525061107b565b905092915050565b600080828401905083811015610fb0576040517f08c379a000000000000000000000000000000000000000000000000000000000815260040180806020018281038252601b8152602001807f536166654d6174683a206164646974696f6e206f766572666c6f77000000000081525060200191505060405180910390fd5b8091505092915050565b6000808314158290611067576040517f08c379a00000000000000000000000000000000000000000000000000000000081526004018080602001828103825283818151815260200191508051906020019080838360005b8381101561102c578082015181840152602081019050611011565b50505050905090810190601f1680156110595780820380516001836020036101000a031916815260200191505b509250505060405180910390fd5b5082848161107157fe5b0690509392505050565b60008083118290611127576040517f08c379a00000000000000000000000000000000000000000000000000000000081526004018080602001828103825283818151815260200191508051906020019080838360005b838110156110ec5780820151818401526020810190506110d1565b50505050905090810190601f1680156111195780820380516001836020036101000a031916815260200191505b509250505060405180910390fd5b50600083858161113357fe5b04905080915050939250505056fe53706c69747465722e73706c697423303030203a2042656e656669636961726965732063616e27742068617665206e756c6c206164647265737353706c69747465722e73706c697423303033203a2056616c75652063616e277420626520304f776e65642e6f6e6c794f776e657223303031203a204f6e6c79204f776e65722063616e2072756e2074686973207061727453706c69747465722e73706c697423303031203a2053656e6465722063616e277420626520612062656e656669636961727953746f707061626c652e6f6e6c79496652756e6e696e6723303031203a2049742773206e6f742072756e6e696e6753706c69747465722e73706c697423303032203a2042656e656669636961726965732063616e27742068617665207468652073616d652076616c75654f776e65642e6368616e67654f776e657223303031203a204f6e6c79204f776e65722063616e2072756e2074686973207061727453706c69747465722e7769746864726177526566756e6423303031203a2042616c616e63652063616e277420626520657175616c20746f2030a2646970667358221220f6dbf77529b3120b6772fd26703e2c02df5024e5817194d27cf80915b23a365f64736f6c634300060a0033",
  "immutableReferences": {},
  "source": "// SPDX-License-Identifier: MIT\nimport \"./SafeMath.sol\";\nimport \"./Stoppable.sol\";\n\npragma solidity 0.6.10;\n\ncontract Splitter is Stoppable {\n\n    using SafeMath for uint;\n\n    uint public maxGas;\n\n    event SplitLog(address indexed sender, uint amount, address indexed first, address indexed second);\n    event WithdrawRefundlog(address indexed who, uint amount);\n    event MaxGasChangedLog(address indexed owner, uint maxGas);\n\n    mapping(address => uint) public balances;\n    \n    constructor (bool _running, uint _maxGas) Stoppable(_running) public {\n        maxGas = _maxGas;\n    }\n\n    function split(address _first, address _second) payable onlyIfRunning external returns(bool){\n\n        require(_first !=  address(0x0) && _second != address(0x0), \"Splitter.split#000 : Beneficiaries can't have null address\");\n        require(_first != msg.sender && _second != msg.sender, \"Splitter.split#001 : Sender can't be a beneficiary\");\n        require(_first != _second, \"Splitter.split#002 : Beneficiaries can't have the same value\");\n        require(msg.value != uint(0), \"Splitter.split#003 : Value can't be 0\");\n\n        uint unsplittableValue = msg.value.mod(uint(2)); \n\n        balances[_first] = balances[_first].add(msg.value.div(uint(2))); \n        balances[_second] = balances[_second].add(msg.value.div(uint(2))); \n\n        if(unsplittableValue != 0) balances[msg.sender] = balances[msg.sender].add(unsplittableValue);\n\n        emit SplitLog(msg.sender, msg.value, _first, _second);\n\n        return true;\n    }\n\n    function withdrawRefund() external returns(bool success){ \n\n        uint amountToRefund = balances[msg.sender];\n\n        require(amountToRefund != uint(0), \"Splitter.withdrawRefund#001 : Balance can't be equal to 0\");\n\n        emit WithdrawRefundlog(msg.sender, amountToRefund);\n\n        balances[msg.sender] = uint(0);\n\n        (success, ) = msg.sender.call{gas : maxGas, value : amountToRefund}(\"\");\n        require(success);\n    }\n\n    fallback() external {\n        revert();\n    }\n\n    function changeMaxGas(uint _maxGas) public onlyOwner returns(bool){\n        uint currectmaxGas = maxGas;\n        require(currectmaxGas != _maxGas, \"Can't have the same gas\");\n        maxGas = _maxGas;\n        emit MaxGasChangedLog(msg.sender, _maxGas);\n    }\n\n}",
  "sourcePath": "/home/vagrant/B9LAB/Splitter_b9lab_v2/contracts/Splitter.sol",
  "compiler": {
    "name": "solc",
    "version": "0.6.10+commit.00c0fcaf.Emscripten.clang"
  },
  "schemaVersion": "3.2.0",
  "updatedAt": "2021-01-24T17:09:20.432Z",
  "networkType": "ethereum",
  "devdoc": {
    "methods": {}
  },
  "userdoc": {
    "methods": {}
  }
}